:020000040800F2
:1000000000000220ADE30908F5E30908B14F00083C
:10001000F5E30908F5E30908F5E309080000000025
:10002000000000000000000000000000F5E30908E7
:10003000F5E3090800000000F5E30908F14C0008A9
:10004000F5E30908F5E30908F5E30908F5E309080C
:10005000F5E30908F5E30908E10100081D020008BD
:10006000F5E30908F5E30908F5E30908F5E30908EC
:10007000F5E30908F5E30908F5E30908F5E30908DC
:10008000F5E30908F5E30908F5E30908F5E30908CC
:10009000F5E30908F5E30908F5E30908ED4E000862
:1000A000F5E30908F5E30908F5E30908F5E30908AC
:1000B000A1060008F5E30908F5E30908F5E30908D6
:1000C000F5E30908F5E30908F5E30908F5E309088C
:1000D0007D5C0008F5E30908F5E30908F5E3090884
:1000E000F5E30908F5E30908F5E30908F5E309086C
:1000F000F5E30908F5E30908F5E30908F5E309085C
:10010000F5E30908F5E30908F5E30908F5E309084B
:10011000F5E30908F5E30908F5E30908F5E309083B
:10012000F5E30908F5E30908F5E30908F5E309082B
:10013000F5E30908F5E30908F5E30908F5E309081B
:10014000F5E30908F5E30908F5E30908F5E309080B
:10015000F5E30908F5E30908F5E30908F5E30908FB
:10016000F5E30908F5E30908F5E30908F5E30908EB
:10017000F5E30908F5E30908F5E30908F5E30908DB
:08018000F5E30908F5E30908A5
:1001880080B582B000AF7860396000F0E1FD7B682F
:10019800022B01DC002315E001F086FB0B4B03F575
:1001A8008B530C334FF400521A600822084909484F
:1001B8009EF03EF896F0D3FC0346002B01D196F052
:1001C800C9FC002318460837BD4680BD000700203B
:1001D80000000020D113002080B500AF012004F0FA
:1001E800E5FC0346002B0ED0084B01221A70FE21B5
:1001F800074801F045F841220021054800F03AFF80
:10020800012004F0F7FC00BF80BD00BF700400208F
:100218009502000880B500AF022004F0C7FC034631
:10022800002B0ED0084B01221A70FE21074801F05E
:1002380027F841220021054800F01CFF022004F0A5
:10024800D9FC00BF80BD00BF7104002095020008E2
:1002580080B584B000AF0346FB71FB799C2202FB9A
:1002680003F303F53673084A13440833FB60FB684D
:10027800B3F90430002B02D0F86801F059F900BF37
:100288001037BD4680BD00BF0007002080B582B092
:1002980000AF0346FB71134B1B78DBB2002B09D070
:1002A800114B1B78DBB2002B04D000210F4800F063
:1002B8007BFE0DE00B4B1B78DBB2002B04D000213A
:1002C8000B4800F071FE03E000210A4800F06CFEC4
:1002D800044B00221A70044B00221A7000BF083722
:1002E800BD4680BD7004002071040020D1030008C1
:1002F800010300086903000880B584B000AF034615
:10030800FB71FB79002B03D1114801F004F91CE0C3
:10031800FB799C2202FB03F303F536730D4A134461
:100328000833FB600221F86801F08EFAB860BB68F8
:1003380000221A70FB68084A9B1A9B10074A02FBA6
:1003480003F3DBB2184600F029F91037BD4680BD2B
:100358000103000800070020E0090020976FF996C4
:1003680080B584B000AF0346FB71FB79002B03D145
:10037800114801F0D0F81CE0FB799C2202FB03F342
:1003880003F536730D4A13440833FB600221F868FD
:1003980001F05AFAB860BB6800221A70FB68084A74
:1003A8009B1A9B10074A02FB03F3DBB2184600F0C6
:1003B800A9F81037BD4680BD690300080007002072
:1003C800E0090020976FF99680B584B000AF034626
:1003D800FB71FB79002B03D11D4801F09CF833E039
:1003E800FB799C2202FB03F303F53673194A134485
:1003F8000833FB600221F86801F026FAB860BB6890
:1004080000221A70144B1A78BB685A70FB68134A9A
:100418009B1A9B10124A02FB03F3DBB2184600F04A
:1004280095F80D4B1B780133DAB20B4B1A700A4B57
:100438001A780C4BA3FB021359080B465B000B44BC
:10044800D31ADAB2044B1A701037BD4680BD00BF0C
:10045800D10300080007002072040020E0090020F2
:10046800976FF996ABAAAAAA80B586B000AFF860D4
:10047800B96011461A460B46FB711346BB7100233F
:100488007B61FB791946F86801F0E2F8786112217E
:10049800F86801F0D9F93861BB799AB23B691A80DA
:1004A8003B690222DA733B6904221A743B69012210
:1004B8009A733B6902221A813B690A225A733B6983
:1004C8000A221A73FB6811229A70FB791A46B968D6
:1004D80078699DF0ADFEFB68074A9B1A9B10074A96
:1004E80002FB03F3DBB21946054800F05DFD00BFCF
:1004F8001837BD4680BD00BFE0090020976FF99608
:10050800B54B090880B586B000AF0346FB71FB798F
:100518009C2202FB03F303F536730B4A134408339A
:100528007B610221786901F08FF9386102233B73FE
:100538003B691B7807F10C0101227869FFF794FFEA
:1005480000BF1837BD4680BD0007002080B586B0C3
:1005580000AF0346FB71FB799C2202FB03F303F512
:1005680036730D4A134408337B610221786901F020
:100578006BF9386101233B733B695B787B733B699B
:100588001B7807F10C0102227869FFF76DFF00BFA5
:100598001837BD4680BD00BF0007002080B586B073
:1005A80000AF0346FB71FB799C2202FB03F303F5C2
:1005B80036730B4A134408337B610221786901F0D2
:1005C80043F9386100233B733B691B7807F10C0141
:1005D80001227869FFF748FF00BF1837BD4680BD84
:1005E800000700200000000080B500AF4FF4E06174
:1005F800024801F040FD00BF80BD00BF000002407E
:1006080080B500AF4FF46041024801F043FD00BFE0
:1006180080BD00BF000C024080B582B000AF034629
:10062800FB80FB881946034801F034FD00BF0837FA
:10063800BD4680BD0000024080B582B000AF0346D1
:10064800FB80FB881946034801F015FD00BF0837F9
:10065800BD4680BD0000024080B582B000AF0346B1
:10066800FB80FB881946034801F014FD00BF0837DA
:10067800BD4680BD000C024080B582B000AF034685
:10068800FB80FB881946034801F0F5FC00BF0837DA
:10069800BD4680BD000C024080B500AF01214FF07F
:1006A800804003F02EFE0346002B1BD00E4B1B6828
:1006B800002B04D04FF48050FFF7DEFF03E04FF427
:1006C8008050FFF7C9FF084B1B68002B0CBF0123A4
:1006D8000023DBB21A46044B1A6001214FF0804018
:1006E80003F039FE00BF80BD0800002080B483B04D
:1006F80000AF00237B6002E07B6801337B607B688E
:10070800044A9342F8DD00BF00BF0C37BD465DF8D0
:10071800047B70471FA1070080B500AF0B4B1B6817
:100728004FF47A72134444F6206293420CDC074B70
:100738001B684FF47A721344044A1360034B1B6816
:100748001946034803F037F800BF80BD7404002041
:100758000000014080B500AF0B4B1B684FF47A7264
:10076800134444F6206293420CDC074B1B684FF499
:100778007A721344044A1360034B1B6819460348F2
:1007880003F027F800BF80BD780400200000014076
:1007980080B500AF0B4B1B684FF47A72134444F6D4
:1007A800206293420CDC074B1B684FF47A721344A7
:1007B800044A1360034B1B681946034803F017F8F3
:1007C80000BF80BD7C0400200000014080B500AF60
:1007D8000A4B1B684FF47A729B1A002B0CDB074BF1
:1007E8001B684FF47A729B1A044A1360034B1B6808
:1007F8001946034802F0DFFF00BF80BD74040020E3
:100808000000014080B500AF0A4B1B684FF47A72B4
:100818009B1A002B0CDB074B1B684FF47A729B1A50
:10082800044A1360034B1B681946034802F0D1FFC2
:1008380000BF80BD780400200000014080B500AFF3
:100848000A4B1B684FF47A729B1A002B0CDB074B80
:100858001B684FF47A729B1A044A1360034B1B6897
:100868001946034802F0C3FF00BF80BD7C04002086
:100878000000014080B582B000AF0346FB80FB88D2
:100888001946064801F0A9FB0346002B0CBF0123BB
:100898000023DBB218460837BD4680BD0010024071
:1008A80080B584B000AF0121012001F0DDFF42F2E4
:1008B800CF03BB6042F20F73BB800023BB810023D0
:1008C800FB803B1D19464FF0804002F063FB00BFE0
:1008D8001037BD4680BD80B584B000AF012101202E
:1008E80001F0E2FF44F61F63BB60A723BB8000232F
:1008F800BB810023FB803B1D1946034802F04AFBDD
:1009080000BF1037BD4680BD0000014080B582B0F1
:1009180000AF0121082001F047FF4FF470433B600E
:1009280001233B710023BB7103237B710023FB71FF
:100938003B461946034801F085FA00BF0837BD4613
:1009480080BD00BF000C024080B582B000AF01211D
:10095800012001F029FF4FF4E0633B6001233B7164
:100968000023BB7103237B710023FB713B461946AF
:10097800034801F067FA00BF0837BD4680BD00BFD5
:100988000000024080B582B000AF0121012001F0D3
:100998000BFF01220821124801F0C4FB01220921A2
:1009A8000F4801F0BFFB01220A210D4801F0BAFBF4
:1009B8003B46184601F0D5FA4FF4E0633B6000234C
:1009C800BB7103237B710023FB7102233B713B4600
:1009D8001946034801F036FA00BF0837BD4680BD06
:1009E8000000024080B582B000AF0121102001F064
:1009F800DBFE03233B6000233B710023BB71032311
:100A08007B710123FB713B461946034801F01AFA32
:100A180000BF0837BD4680BD0010024080B582B0D7
:100A280000AF012201214FF0804003F00AFC1C2393
:100A38003B7100237B710123BB710123FB713B1DBB
:100A4800184601F0B9F800BF0837BD4680BD80B52B
:100A580082B000AF01214FF4804001F025FF002152
:100A6800042002F03BF901233B600123BB71002302
:100A78003B710C237B713B46184603F0D3FF00BF44
:100A88000837BD4680BD80B582B000AF01214FF464
:100A9800804001F009FF0121042002F01FF9022320
:100AA8003B600123BB7100233B710C237B713B46E8
:100AB800184603F0B7FF00BF0837BD4680BD80B5B4
:100AC80082B000AF06233B7105237B710523BB7100
:100AD8000123FB713B1D184601F06EF800BF083773
:100AE800BD4680BD80B582B000AF07233B710523AA
:100AF8007B710523BB710123FB713B1D184601F077
:100B08005BF800BF0837BD4680BD80B586B000AF32
:100B18003B1D00221A605A609A60DA601A617023DD
:100B2800BB800123FB80184B00221A60174B002260
:100B38001A60174B00221A60134B1B68FB603B1DA1
:100B48001946144802F0C9FB104B1B68FB603B1D9B
:100B58001946104802F03CFC0D4B1B68FB603B1D1E
:100B680019460C4802F0BCFC08210A4802F0CFFEE6
:100B78000821084802F0E7FE0821064802F001FFB4
:100B880000BF1837BD4680BD7404002078040020DB
:100B98007C0400200000014080B582B000AF03460D
:100BA800FB710B46BB7113467B71FB7918469DF0B0
:100BB800A3F84FF000022C4B9DF032FA02460B4688
:100BC8001046194626A3D3E900239DF0FFF80246F4
:100BD8000B46104619469DF00BFB03461946234861
:100BE80002F0E9FDBB7918469DF086F84FF0000247
:100BF8001D4B9DF015FA02460B461046194618A3E0
:100C0800D3E900239DF0E2F802460B461046194648
:100C18009DF0EEFA03461946144802F0DAFD7B7996
:100C280018469DF069F84FF000020F4B9DF0F8F957
:100C380002460B461046194609A3D3E900239DF046
:100C4800C5F802460B46104619469DF0D1FA0346F0
:100C58001946064802F0CBFD00BF0837BD4680BDE7
:100C6800000000000088D3400000704000000140F0
:100C780080B584B000AF78607B681B0CFB737B6821
:100C88001B0ABB737B687B73FB7B18469DF034F8AB
:100C98004FF000022C4B9DF0C3F902460B4610465C
:100CA800194627A3D3E900239DF090F802460B4686
:100CB800104619469DF09CFA03461946234802F04F
:100CC8007AFDBB7B18469DF017F84FF000021E4BCB
:100CD8009DF0A6F902460B461046194618A3D3E91B
:100CE80000239DF073F802460B46104619469DF006
:100CF8007FFA03461946154802F06BFD7B7B1846C0
:100D08009CF0FAFF4FF000020F4B9DF089F9024664
:100D18000B46104619460AA3D3E900239DF056F85E
:100D280002460B46104619469DF062FA03461946DC
:100D3800064802F05CFD00BF1037BD4680BD00BF0D
:100D4800000000000088D34000007040000001400F
:100D580080B500AFFFF7DAFDFFF744FEFFF712FE9C
:100D6800FFF7B9FDFFF7D1FEFFF771FEFFF78BFE26
:100D7800FFF7A5FEFFF7B6FE0121044802F08DFA41
:100D88000121024803F0F7F900BF80BD00000140CF
:100D980080B584B000AF0023BB810023FB7305F04E
:100DA8008DF822E00123FB735E4B93F84C32DBB2E3
:100DB800002B04D05C4B93F8A53C072B27D9BB68C4
:100DC8001B68BA68127910469847574BD3F8883091
:100DD800013B554AC2F88830534BD3F88030013371
:100DE80003F00F03504AC2F880304F4BD3F88830D5
:100DF800002B06D04C4BD3F88030DB004A4A134412
:100E080000E00023BB60BB68002BCBD100E000BF33
:100E1800454BD3F83832002B56D0424BB3F8463204
:100E2800BB813FE00123FB733E4B93F84C32DBB2AE
:100E3800002B04D03C4B93F8A53C072B43D93A4BE5
:100E4800D3F838327B60384BD3F83832002B1AD0BD
:100E5800354BD3F838329B68002B08D0324BD3F887
:100E68003822314BD3F838329B68D268DA602E4B7F
:100E7800D3F838320022DA602B4BD3F838329B682B
:100E8800294AC2F838327B681B687A68127910469A
:100E98009847254BD3F83C227B689A60224A7B68A6
:100EA800C2F83C32204BD3F838327B607B68002B89
:100EB8000AD07B68DB88BA89D31A9BB247F6FE72E0
:100EC8009342AFD900E000BF174BD3F83832002B5C
:100ED8001DD0154BD3F83832DA88BB89D31A9BB2A8
:100EE80047F6FE72934207D80F4BD3F83832DA88A8
:100EF800BB89D31A9BB206E00B4BD3F83832DB8898
:100F0800BA89D31A9BB2184600F0AEFD01E000F092
:100F1800FDFDFB7B002B7FF43EAF00BF00BF103709
:100F2800BD4680BDB00400200007002080B485B015
:100F380000AF78600B46FB700023FB60184BD3F8BA
:100F4800B430032B06D8164BD3F8B030DB00154A63
:100F5800134400E00023BB60BB68002B16D0BB68BD
:100F68007A681A60BB68FA781A710D4BD3F8B430F6
:100F780001330B4AC2F8B430094BD3F8B03001330F
:100F880003F00303064AC2F8B03002E06FF01C0316
:100F9800FB60FB6818461437BD465DF8047B704754
:100FA800000700208C07002080B485B000AF78606F
:100FB8000B46FB700023FB60184BD3F888300F2BCF
:100FC80006D8164BD3F88430DB00144A134400E0EB
:100FD8000023BB60BB68002B16D0BB687A681A6018
:100FE800BB68FA781A710D4BD3F8883001330B4A75
:100FF800C2F88830094BD3F88430013303F00F036B
:10100800064AC2F8843002E06FF01C03FB60FB68FC
:1010180018461437BD465DF8047B7047000700206A
:1010280080B483B000AF7860114BD3F838227B6866
:101038009A600F4BD3F83832002B0BD00C4BD3F8F7
:101048003832DA687B68DA60094BD3F838327A6864
:10105800DA6002E07B687A68DA60054A7B68C2F881
:10106800383200BF0C37BD465DF8047B704700BFBF
:101078000007002080B586B000AF78600B46FB7093
:1010880013463B8000237B617B4BD3F83C32002B1B
:101098000BD0794BD3F83C323B61774BD3F83C32D9
:1010A8009B68754AC2F83C3201E000233B613B690A
:1010B800002B00F0D8803B697A681A603B69FA789F
:1010C8001A716E4BB3F846327B817A893B88134498
:1010D8009AB23B69DA80684BD3F83832002B0BD0D0
:1010E800654BD3F83832DA883B69DB88D31A9BB270
:1010F80047F6FE72934203D83869FFF791FF84E000
:101108005D4BD3F83832FB6002E0FB689B68FB60FC
:10111800FB68002B09D03B69DA88FB68DB88D31AA7
:101128009BB247F6FE729342EFD9FB68002B4BD077
:10113800FB68DB68FB60FB68002B41D0FB68002B79
:1011480063D04D4BD3F83832002B04D04A4BD3F838
:101158003832DB6800E00023FA68934221D13B690A
:1011680000229A60444BD3F83832002B11D0424BFE
:10117800D3F83832DA683B69DA603F4BD3F8383253
:10118800DB683A699A603C4BD3F838323A69DA60DE
:101198003BE03B693A69DA60374A3B69C2F8383262
:1011A80033E0FB689A683B699A603B69FA68DA60E1
:1011B800FB689B683A69DA60FB683A699A6024E0E0
:1011C8003869FFF72DFF20E03B6900229A602A4B1F
:1011D800D3F83832002B11D0274BD3F83832DA68DD
:1011E8003B69DA60244BD3F83832DB683A699A6095
:1011F800214BD3F838323A69DA6006E03B693A693C
:10120800DA601D4A3B69C2F838321B4BD3F83832D2
:10121800FB601A4BB3F846327B81FB68DB887A891E
:101228009A4223D0FB68DA887B89D31A9BB247F6A7
:10123800FE7293421AD8FB68DA887B89D31A9BB26C
:1012480047F6FE72934205D8FB68DA887B89D31A81
:101258009BB204E0FB68DB887A89D31A9BB21846F4
:1012680000F002FC02E06FF01C037B617B6918460A
:101278001837BD4680BD00BF00070020B00400201D
:1012880080B487B000AF78600B46FB706FF01B032B
:101298007B612E4BD3F838323B614AE03B699B684F
:1012A800FB603B691B687A689A4240D1FB78FF2B48
:1012B80007D0FB78FE2B04D03B691B79FA789A4259
:1012C80035D13B69DB68002B23D03B699B68002B39
:1012D80005D03B699B683A69D268DA6005E01B4B28
:1012E800D3F838323A69D268DA60184BD3F8383212
:1012F8003A699A4205D13B699B68144AC2F8383268
:1013080004E03B69DB683A6992689A603B690022AD
:10131800DA600E4BD3F83C223B699A600B4A3B6972
:10132800C2F83C3200237B61FB78FE2B05D1FB68B9
:101338003B613B69002BB1D100E000BF7B691846D7
:101348001C37BD465DF8047B704700BF00070020CE
:1013580080B584B000AF0346FB710023FB60FB79C6
:101368001D4A134493F8A43C072B26D81A4BD3F8EC
:10137800A03CFB60FB68002B1FD0FB681B68164A6B
:10138800C2F8A03CFB680822002118469DF00EF91F
:10139800FB79114A1A4492F8A42C0132D1B20E4AB0
:1013A80013440A4683F8A42CFB7903F00103D9B24D
:1013B800FA68937961F300039371074B93F8A42CAF
:1013C800064B1A70044B93F8A52C054B1A70FB6852
:1013D80018461037BD4680BD00070020AD04002028
:1013E800AC04002080B500AF0120FFF7B1FF034631
:1013F800184680BD80B500AF0020FFF7A9FF03465F
:10140800184680BD80B584B000AF78600B46FB708D
:10141800FB781846FFF79CFFB860BB68002B0DD01F
:10142800BB68334A9B1A9B10324A02FB03F3DBB2B8
:1014380019467868FFF7B8FD034655E02E4BD3F8F8
:101448005032002B0BD02C4BD3F85032FB602A4B78
:10145800D3F850325B68284AC2F8503201E00023C2
:10146800FB60FB68002B3BD0FB687A681A60FB784E
:10147800002B1AD0FB6800225A601F4BD3F8443265
:10148800002B09D01C4BD3F84432FA685A601A4A28
:10149800FB68C2F8443226E0174AFB68C2F84032BB
:1014A800154AFB68C2F844321DE0FB6800225A6006
:1014B800114BD3F84C32002B09D00F4BD3F84C32D8
:1014C800FA685A600C4AFB68C2F84C320BE00A4AC8
:1014D800FB68C2F84832084AFB68C2F84C3202E09E
:1014E8004FF0FF3300E0002318461037BD4680BD9B
:1014F800E0090020976FF9960007002080B582B0B8
:1015080000AF786001217868FFF77CFF0346184632
:101518000837BD4680BD80B582B000AF7860002135
:101528007868FFF76FFF034618460837BD4680BD49
:1015380090B585B000AF78600023FB607B689B792D
:10154800C3F30003DBB23F4A1A4492F8A42C013AD1
:10155800D1B23C4A13440A4683F8A42C394BD3F839
:10156800A02C7B681A60374A7B68C2F8A03C7B686D
:101578009B7903F00103DBB2002B21D0314B93F8A8
:10158800143D002B38D12F4BD3F84032002B14D008
:101598002C4BD3F84032FB602A4BD3F840325B68BF
:1015A800284AC2F84032274BD3F84032002B23D1C7
:1015B800244B0022C3F844221EE00023FB601BE0FA
:1015C800204BD3F84832002B14D01E4BD3F84832A6
:1015D800FB601C4BD3F848325B681A4AC2F84832A1
:1015E800184BD3F84832002B06D1164B0022C3F80B
:1015F8004C2201E00023FB60FB68002B1ED0FB6837
:101608001C687B689B79C3F30003DBB21846FFF7BD
:101618009FFE03460C4A9B1A9B100C4A02FB03F3DD
:10162800DBB219462046FFF7BFFC064BD3F8502221
:10163800FB685A60034AFB68C2F8503200BF14378F
:10164800BD4690BD00070020E0090020976FF9967D
:1016580080B584B000AF78600B46FB707B689B79DF
:10166800C3F30003DBB2FB737B6808220021184632
:101678009CF09CFFFB7B03F00103D9B27A68937955
:1016880061F3000393717B68FA781A70FB78C3F1F1
:101698009403DA0F13445B10DAB27B685A707B68E4
:1016A80008337A685278134418461037BD4680BD0F
:1016B80080B584B000AF78600B46FB707B685B78C0
:1016C800FA789A4215D97B6808337A6852781344B5
:1016D800FB60FB787A6852789B1A1A46FB68981860
:1016E8007B681B781A46F9689CF0F8FE7B68FA78E4
:1016F8005A707B681A78FB781344DAB27B681A70E0
:101708007B685A78FB78D31ADAB27B685A707B68A0
:1017180008337A685278134418461037BD4680BD9E
:1017280080B485B000AF78600B46FB707B6803F12E
:1017380008027B685B7819467B681B780B44134466
:10174800FB607B681A78FB781344DAB27B681A70FE
:10175800FB6818461437BD465DF8047B704780B5B2
:1017680086B000AFF860B9601346FB71FB685B7820
:101778001A46FB681B781344C3F19402FB799A421A
:1017880022DAFA79FB685B781946FB681B780B4408
:10179800C3F19403D31A7B61FB680833FA68527863
:1017A80013443B617B695B423A69D018FB681B783C
:1017B8001A4639699CF092FEFB685A787B69DBB25D
:1017C800D31ADAB2FB685A70FB791946F86800F048
:1017D8003BF8FB791A46B9689CF02AFD00BF183718
:1017E800BD4680BD80B483B000AF78600B46FB7007
:1017F8007B681A78FB78D31ADAB27B681A707B6830
:101808005A78FB781344DAB27B685A707B680833DD
:101818007A685278134418460C37BD465DF8047B45
:10182800704780B483B000AF78600B46FB707B686C
:101838001A78FB78D31ADAB27B681A7000BF0C37B3
:10184800BD465DF8047B704780B483B000AF786014
:101858000B46FB707B680833FA78C2F19402134494
:1018680018460C37BD465DF8047B704780B584B0D8
:1018780000AF78607B689B79C3F30003DBB2FB732E
:101888007B680822002118469CF090FEFB7B03F041
:101898000103D9B27A68937961F30003937100BFA9
:1018A8001037BD4680BD00BF80B500AF41F6A432F9
:1018B800002111489CF07AFE4FF4147200210F4861
:1018C8009CF074FE03F0F2F903F08EFA0C4800F075
:1018D8002BF900F04FF900F087F800F057F803F003
:1018E80075FB04F067FA8BF09BFA93F0B9F895F062
:1018F800E7F800BF80BD00BF00070020B00400204B
:10190800D0E6090880B582B000AF1F4BB3F8C83CD9
:10191800002B0BD11C4B03F58B5309331B78002B81
:1019280004D1194B4FF6FF72A3F8C82C00237B6033
:1019380010E07B68DBB20533DAB213497B680B44ED
:1019480003F6D1431B781946104607F0B3FB7B68B2
:1019580001337B607B68072BEBD90B4BB3F8C83C92
:10196800DBB21946012007F0A5FB074BB3F8C83CCA
:101978001B0A9BB2DBB21946022007F09BFB00BF93
:101988000837BD4680BD00BF0007002080B483B083
:1019980000AF134BD3F8A03C002B1BD1104B114ABE
:1019A800C3F8A02C0E4BD3F8A03C3B600F23FB716F
:1019B80007E03B6803F19C023B681A603B689C3374
:1019C8003B60FB795A1EFA71002BF2D13B6800226A
:1019D8001A6000E000BF0C37BD465DF8047B704715
:1019E80000070020E009002080B483B000AF002386
:1019F800FB7113E0FB791B4AD2F83C2219490C33DE
:101A08001B010B441A60FB791B01B833154A1344B8
:101A1800144AC2F83C32FB790133FB71FB790F2B76
:101A2800E8D90023FB7113E0FB790E4AD2F8502263
:101A38000C493733DB000B445A60FB793733DB0042
:101A4800084A1344074AC2F85032FB790133FB7144
:101A5800FB790F2BE8D900BF00BF0C37BD465DF8F6
:101A6800047B70470007002080B485B000AF0346B0
:101A7800FB80244BB3F84632FB81FA89FB88134478
:101A8800BB8172B600BF1F4B93F84832DBB2002B04
:101A980015D01C4BB3F844329BB2BA89D31A9BB207
:101AA80047F6FE7293420AD8164BB3F844329AB2FC
:101AB800FB89D31A9BB247F6FE72934207D9114AA3
:101AC800BB89A2F844320F4B012283F8482262B640
:101AD80000BF0D4B1B6803F48033002B0BD10A4B5E
:101AE8001B68094A43F001031360074B1B68064A49
:101AF80043F00203136000BF1437BD465DF8047B52
:101B0800704700BFB004002010E000E080B400AFD0
:101B1800044B002283F8482200BFBD465DF8047BD1
:101B2800704700BFB004002080B483B000AF786075
:101B38000F4B03F58B530C334FF480321A600C4B68
:101B480003F58B530A3301221A70094B012283F8DB
:101B5800CA2C074B202283F8832E054B032283F8D7
:101B6800F82D00BF0C37BD465DF8047B704700BFF9
:101B78000007002080B400AF00BFBD465DF8047BBD
:101B8800704780B400AF00BFBD465DF8047B704766
:101B980080B483B000AF7860064A7B6843F0BF63C7
:101BA80043F40033D36000BF0C37BD465DF8047BB7
:101BB800704700BF00ED00E080B485B000AF7860EA
:101BC8000023FB730023BB730F237B737B68DB78D5
:101BD800002B39D0274BDB68DB431B0ADBB203F051
:101BE8000703FB73FB7BC3F10403BB737A7BFB7BAB
:101BF80042FA03F37B737B685B781A46BB7B02FA75
:101C080003F3FB737B689A787B7B1340DAB2FB7B28
:101C18001343FB73FB7B1B01FB73174A7B681B7821
:101C28001344FA7B83F800237B681B7803F01F03B7
:101C380011497A6812785209D2B21046012202FA82
:101C480003F341F820300FE07B681B7803F01F0393
:101C580009497A6812785209D2B2104601229A408C
:101C680000F1200341F8232000BF1437BD465DF87A
:101C7800047B704700ED00E000E100E080B483B031
:101C880000AF786039603B6823F0604323F07F033E
:101C980004497A6813438B6000BF0C37BD465DF872
:101CA800047B704700ED00E080B483B000AF0346CA
:101CB8000A46FB711346BB71BB79002B06D00A4B51
:101CC8001A69FB79084913430B6106E0064B1A6948
:101CD800FB79DB43044913400B6100BF0C37BD4659
:101CE8005DF8047B704700BF00ED00E080B483B06E
:101CF80000AF78607B68042B06D1094B1B68084A43
:101D080043F00403136005E0054B1B68044A23F005
:101D18000403136000BF0C37BD465DF8047B7047B1
:101D280010E000E080B582B000AF78607B683C4A84
:101D3800934208D10121012000F0D6FD00210120A5
:101D480000F0D2FD68E07B68364A934208D1012151
:101D5800022000F0C9FD0021022000F0C5FD5BE073
:101D68007B68314A934208D10121042000F0BCFD70
:101D78000021042000F0B8FD4EE07B682B4A934216
:101D880008D10121082000F0AFFD0021082000F053
:101D9800ABFD41E07B68264A934208D1012110201F
:101DA80000F0A2FD0021102000F09EFD34E07B68C9
:101DB800204A934208D10121202000F095FD0021FE
:101DC800202000F091FD27E07B681B4A934208D150
:101DD8000121402000F088FD0021402000F084FD12
:101DE8001AE07B68154A934208D10121802000F04F
:101DF8007BFD0021802000F077FD0DE07B68104A14
:101E0800934209D101214FF4807000F06DFD00214B
:101E18004FF4807000F068FD00BF0837BD4680BDF4
:101E2800000002400004024000080240000C02408A
:101E3800001002400014024000180240001C02403A
:101E48000020024080B487B000AF7860396000237A
:101E58007B6100233B610023FB6000237B6176E00C
:101E680001227B6902FA03F33B613B681B683A690C
:101E78001340FB60FA683B699A4265D17B681A682F
:101E88007B695B00032101FA03F3DB431A407B689B
:101E98001A607B681A683B681B7919467B695B0086
:101EA80001FA03F31A437B681A603B681B79012B1C
:101EB80003D03B681B79022B2ED17B689A687B691B
:101EC8005B00032101FA03F3DB431A407B689A6045
:101ED8007B689A683B685B7919467B695B0001FA05
:101EE80003F31A437B689A607B685A687B699BB2E4
:101EF800194601238B40DB431A407B685A607B6894
:101F08005B683A68927911467A6992B201FA02F2EC
:101F180092B21A437B685A607B68DA687B699BB225
:101F28005B00032101FA03F3DB431A407B68DA60A4
:101F38007B68DA683B68DB7919467B695B0001FAE4
:101F480003F31A437B68DA607B6901337B617B6941
:101F58000F2B85D900BF00BF1C37BD465DF8047B39
:101F6800704780B483B000AF78607B684FF6FF722B
:101F78001A607B6800221A717B6800225A717B689C
:101F880000229A717B680022DA7100BF0C37BD46C7
:101F98005DF8047B704780B485B000AF78600B466D
:101FA8007B804FF48033FB607A88FB681343FB60C7
:101FB800FA687B68DA617A887B68DA61FA687B6834
:101FC800DA617B68DB69FB607B68DB69FB6000BF0B
:101FD8001437BD465DF8047B704780B485B000AF08
:101FE80078600B467B800023FB737B681A697B88CB
:101FF8001340002B02D00123FB7301E00023FB7385
:10200800FB7B18461437BD465DF8047B704780B4E7
:1020180083B000AF78607B681B699BB218460C37A9
:10202800BD465DF8047B704780B485B000AF78602A
:102038000B467B800023FB737B685A697B881340BF
:10204800002B02D00123FB7301E00023FB73FB7B11
:1020580018461437BD465DF8047B704780B483B0DA
:1020680000AF78607B685B699BB218460C37BD4649
:102078005DF8047B704780B483B000AF78600B468E
:102088007B807B687A881A8300BF0C37BD465DF871
:10209800047B704780B483B000AF78600B467B80C8
:1020A8007B687A885A8300BF0C37BD465DF8047B8D
:1020B800704780B483B000AF78600B467B801346CE
:1020C8007B707B78002B03D07B687A881A8302E0C8
:1020D8007B687A885A8300BF0C37BD465DF8047B5D
:1020E800704780B483B000AF78600B467B807A88F5
:1020F8007B685A6100BF0C37BD465DF8047B7047AA
:1021080080B483B000AF78600B467B807B685A69E7
:102118007B885A407B685A6100BF0C37BD465DF822
:10212800047B704780B485B000AF78600B467B8035
:1021380013467B700023FB600023BB607A787B88A2
:1021480003F007039B0002FA03F3FB607B88DB08BC
:102158009BB21A467B68083253F822207B8803F02A
:1021680007039B000F2101FA03F3DB437988C908B1
:1021780089B2084602EA03017B6800F1080243F8C5
:1021880022107B88DB089BB21A467B68083253F81A
:102198002230FA681343BB607B88DB089BB21A467F
:1021A8007B680832B96843F8221000BF1437BD466F
:1021B8005DF8047B704700BF80B400AF104B1B680C
:1021C8000F4A43F0010313600D4B00229A600C4B39
:1021D8001B680B4A23F0847323F480331360084B85
:1021E800084A5A60064B1B68054A23F4802313608B
:1021F800034B0022DA6000BFBD465DF8047B7047E0
:10220800003802401030002480B483B000AF034689
:10221800FB71064B00221A70044AFB79137000BF49
:102228000C37BD465DF8047B704700BF023802409A
:1022380080B582B000AF00233B600023FB71002310
:10224800BB71312000F0B6FC0346BB713B6801331B
:102258003B603B68B3F5A06F02D0BB79002BF0D090
:10226800312000F0A7FC0346002B02D00123FB71AC
:1022780001E00023FB71FB7918460837BD4680BD95
:1022880080B485B000AF0346FB710023FB600A4BA6
:102298001B68FB60FB6823F0F803FB60FB79DB003D
:1022A800FA681343FB60044AFB68136000BF1437E5
:1022B800BD465DF8047B70470038024080B483B0A7
:1022C80000AF0346FB71044AFB79136000BF0C376B
:1022D800BD465DF8047B70470000474280B483B078
:1022E80000AF0346FB710D4B00221A700B4B002206
:1022F8001A70FB79012B02D0042B04D007E0074B9E
:1023080001221A7003E0054B05221A7000BF00BFB6
:102318000C37BD465DF8047B704700BF703802403B
:1023280080B483B000AF0346FB71044AFB791360A5
:1023380000BF0C37BD465DF8047B7047800E4742EE
:1023480080B485B000AFF860B9607A603B607B68A4
:102358009A01BB681A433B685B08013B1B041A439C
:10236800FB681A43BB691B06044913434B6000BF53
:102378001437BD465DF8047B704700BF0038024043
:1023880080B483B000AF0346FB71044AFB79136045
:1023980000BF0C37BD465DF8047B704760004742BC
:1023A80080B483B000AF786039607B689A013B687D
:1023B8001B0705491343C1F8843000BF0C37BD46DD
:1023C8005DF8047B704700BF0038024080B483B0DA
:1023D80000AF0346FB71044AFB79136000BF0C375A
:1023E800BD465DF8047B70476800474280B483B0FF
:1023F80000AF0346FB71044AFB79136000BF0C373A
:10240800BD465DF8047B70474C00474280B485B0F8
:1024180000AF786039600023FB600B4B9B68FB6062
:10242800FB6823F0EC63FB607A683B681343FA6847
:102438001343FB60044AFB68936000BF1437BD4632
:102448005DF8047B704700BF0038024080B485B057
:1024580000AF786039600023FB600B4B9B68FB6022
:10246800FB6823F07843FB607A683B681343FA689B
:102478001343FB60044AFB68936000BF1437BD46F2
:102488005DF8047B704700BF0038024080B485B017
:1024980000AF78600023FB60094B9B68FB60FB681A
:1024A80023F00303FB60FA687B681343FB60044A6C
:1024B800FB68936000BF1437BD465DF8047B704726
:1024C8000038024080B400AF054B9B68DBB203F0D4
:1024D8000C03DBB21846BD465DF8047B704700BFAD
:1024E8000038024080B485B000AF78600023FB60FC
:1024F800094B9B68FB60FB6823F0F003FB60FA68FC
:102508007B681343FB60044AFB68936000BF143781
:10251800BD465DF8047B70470038024080B485B042
:1025280000AF78600023FB60094B9B68FB60FB6889
:1025380023F4E053FB60FA687B681343FB60044AAA
:10254800FB68936000BF1437BD465DF8047B704795
:102558000038024080B485B000AF78600023FB608B
:102568000A4B9B68FB60FB6823F46043FB607B6855
:10257800DB00FA681343FB60044AFB68936000BF02
:102588001437BD465DF8047B704700BF0038024031
:1025980080B489B000AF78600023BB6100237B6101
:1025A8000023FB6102233B610023FB600223BB6025
:1025B8004A4B9B6803F00C03BB61BB69082B11D025
:1025C800BB69082B44D8BB69002B03D0BB69042B1B
:1025D80004D03DE07B68424A1A603DE07B68414A8E
:1025E8001A6039E03D4B5B689B0D03F00103FB600B
:1025F8003A4B5B6803F03F03BB60FB68002B0CD0D1
:10260800384ABB68B2FBF3F3344A52689209C2F302
:10261800080202FB03F3FB610BE0314ABB68B2FB23
:10262800F3F32E4A52689209C2F3080202FB03F33D
:10263800FB612A4B5B681B0C03F0030301335B004F
:102648003B61FA693B69B2FBF3F27B681A6003E00D
:102658007B68234A1A6000BF204B9B6803F0F00395
:10266800BB61BB691B09BB611F4ABB6913441B786B
:10267800DBB27B617B681A687B69DA407B685A60E9
:10268800164B9B6803F4E053BB61BB699B0ABB61B3
:10269800154ABB6913441B78DBB27B617B685A68B7
:1026A8007B69DA407B689A600C4B9B6803F4604353
:1026B800BB61BB695B0BBB610B4ABB6913441B78ED
:1026C800DBB27B617B685A687B69DA407B68DA60D9
:1026D80000BF2437BD465DF8047B704700380240D0
:1026E8000024F400001BB7000C00002080B485B063
:1026F80000AF78600023FB607B6803F44073B3F598
:10270800407F11D10F4B9B68FB60FB6823F4F813E3
:10271800FB607B6823F0704323F44073FA6813432B
:10272800FB60084AFB689360064B1A6F7B68C3F32B
:102738000B03044913430B6700BF1437BD465DF80C
:10274800047B70470038024080B483B000AF034672
:10275800FB71044AFB79136000BF0C37BD465DF876
:10276800047B70473C0E474280B483B000AF0346F9
:10277800FB71044AFB79136000BF0C37BD465DF856
:10278800047B7047400E474280B483B000AF786046
:10279800044A7B68136000BF0C37BD465DF8047BB4
:1027A800704700BF5C01474280B483B000AF7860D7
:1027B8000B46FB70FB78002B06D00A4B1A6B0949B5
:1027C8007B6813430B6306E0064B1A6B7B68DB439D
:1027D800044913400B6300BF0C37BD465DF8047B0A
:1027E800704700BF0038024080B483B000AF786003
:1027F8000B46FB70FB78002B06D00A4B5A6B094935
:102808007B6813434B6306E0064B5A6B7B68DB43DC
:10281800044913404B6300BF0C37BD465DF8047B89
:10282800704700BF0038024080B483B000AF7860C2
:102838000B46FB70FB78002B06D00A4B9A6B0949B4
:102848007B6813438B6306E0064B9A6B7B68DB431C
:10285800044913408B6300BF0C37BD465DF8047B09
:10286800704700BF0038024080B483B000AF786082
:102878000B46FB70FB78002B06D00A4B1A6C0949F3
:102888007B6813430B6406E0064B1A6C7B68DB43DA
:10289800044913400B6400BF0C37BD465DF8047B48
:1028A800704700BF0038024080B483B000AF786042
:1028B8000B46FB70FB78002B06D00A4B5A6C094973
:1028C8007B6813434B6406E0064B5A6C7B68DB431A
:1028D800044913404B6400BF0C37BD465DF8047BC8
:1028E800704700BF0038024080B483B000AF786002
:1028F8000B46FB70FB78002B06D00A4B1A69094976
:102908007B6813430B6106E0064B1A697B68DB435F
:10291800044913400B6100BF0C37BD465DF8047BCA
:10292800704700BF0038024080B483B000AF7860C1
:102938000B46FB70FB78002B06D00A4B5A690949F5
:102948007B6813434B6106E0064B5A697B68DB439F
:10295800044913404B6100BF0C37BD465DF8047B4A
:10296800704700BF0038024080B483B000AF786081
:102978000B46FB70FB78002B06D00A4B9A69094975
:102988007B6813438B6106E0064B9A697B68DB43DF
:10299800044913408B6100BF0C37BD465DF8047BCA
:1029A800704700BF0038024080B483B000AF786041
:1029B8000B46FB70FB78002B06D00A4B1A6A0949B4
:1029C8007B6813430B6206E0064B1A6A7B68DB439D
:1029D800044913400B6200BF0C37BD465DF8047B09
:1029E800704700BF0038024080B483B000AF786001
:1029F8000B46FB70FB78002B06D00A4B5A6A094934
:102A08007B6813434B6206E0064B5A6A7B68DB43DC
:102A1800044913404B6200BF0C37BD465DF8047B88
:102A2800704700BF0038024080B483B000AF7860C0
:102A38000B46FB70FB78002B06D00A4B1A6D094930
:102A48007B6813430B6506E0064B1A6D7B68DB4316
:102A5800044913400B6500BF0C37BD465DF8047B85
:102A6800704700BF0038024080B483B000AF786080
:102A78000B46FB70FB78002B06D00A4B5A6D0949B0
:102A88007B6813434B6506E0064B5A6D7B68DB4356
:102A9800044913404B6500BF0C37BD465DF8047B05
:102AA800704700BF0038024080B483B000AF786040
:102AB8000B46FB70FB78002B06D00A4B9A6D094930
:102AC8007B6813438B6506E0064B9A6D7B68DB4396
:102AD800044913408B6500BF0C37BD465DF8047B85
:102AE800704700BF0038024080B483B000AF786000
:102AF8000B46FB70FB78002B06D00A4B1A6E09496F
:102B08007B6813430B6606E0064B1A6E7B68DB4353
:102B1800044913400B6600BF0C37BD465DF8047BC3
:102B2800704700BF0038024080B483B000AF7860BF
:102B38000B46FB70FB78002B06D00A4B5A6E0949EE
:102B48007B6813434B6606E0064B5A6E7B68DB4393
:102B5800044913404B6600BF0C37BD465DF8047B43
:102B6800704700BF0038024080B483B000AF03460E
:102B78000A46FB711346BB71BB79002B08D00C4B7E
:102B88001B78DAB20A49FB791343DBB20B7009E010
:102B9800074B1B78DAB2FB79DB43DBB204491340FD
:102BA800DBB20B7000BF0C37BD465DF8047B704785
:102BB8000D38024080B487B000AF0346FB71002394
:102BC800FB6000237B610023FB74FB795B09DBB2AC
:102BD800FB60FB68012B03D1124B1B687B6109E08A
:102BE800FB68022B03D10F4B1B6F7B6102E00D4B7F
:102BF8005B6F7B61FB7903F01F03FB607A69FB68FD
:102C080022FA03F303F00103002B02D00123FB7423
:102C180001E00023FB74FB7C18461C37BD465DF8B9
:102C2800047B70470038024080B400AF054B5B6FEF
:102C3800044A43F08073536700BFBD465DF8047BC8
:102C4800704700BF0038024080B485B000AF03462B
:102C5800FB710023FB73094BDA68FB791340002BE7
:102C680002D00123FB7301E00023FB73FB7B1846B2
:102C78001437BD465DF8047B704700BF003802403A
:102C880080B483B000AF0346FB71044AFB7913702C
:102C980000BF0C37BD465DF8047B70470E38024014
:102CA80080B500AF01214FF48040FFF79DFE002161
:102CB8004FF48040FFF798FE00BF80BD80B483B01A
:102CC80000AF0346FB71044AFB79136000BF0C3761
:102CD800BD465DF8047B70470038014080B485B07C
:102CE80000AF03460A46FB711346BB710023FB6025
:102CF800BB7903F003039B000F2202FA03F3FB6086
:102D0800164ABB799B08DBB2023352F82320FB68D2
:102D1800DB431248B9798908C9B21A408B1C40F8BC
:102D280023200E4ABB799B08DBB2023352F82320DA
:102D3800F979BB7903F003039B0001FA03F3074811
:102D4800B9798908C9B21A438B1C40F8232000BFFF
:102D58001437BD465DF8047B704700BF003801405A
:102D680080B483B000AF7860044A7B68136000BF0A
:102D78000C37BD465DF8047B704700BFDC00274276
:102D880080B483B000AF0346FB71044AFB7913603B
:102D980000BF0C37BD465DF8047B7047000427422E
:102DA80080B483B000AF0023FB71094B1B6A03F4A6
:102DB8008073002B02D00123FB7101E00023FB711B
:102DC800FB7918460C37BD465DF8047B704700BF99
:102DD8000038014080B582B000AF78607B68604AF7
:102DE800934208D101210120FFF7FEFD00210120B7
:102DF800FFF7FAFDAFE07B68B3F1804F08D10121FE
:102E08000120FFF7D1FD00210120FFF7CDFDA2E051
:102E18007B68544A934208D101210220FFF7C4FD80
:102E280000210220FFF7C0FD95E07B684E4A9342DF
:102E380008D101210420FFF7B7FD00210420FFF786
:102E4800B3FD88E07B68494A934208D101210820F4
:102E5800FFF7AAFD00210820FFF7A6FD7BE07B68AD
:102E6800434A934208D101211020FFF79DFD00211C
:102E78001020FFF799FD6EE07B683E4A934208D127
:102E880001212020FFF790FD00212020FFF78CFD75
:102E980061E07B68384A934208D101210220FFF79C
:102EA800A3FD00210220FFF79FFD54E07B68334A11
:102EB80093420AD101214FF48030FFF795FD00219C
:102EC8004FF48030FFF790FD45E07B682C4A934231
:102ED8000AD101214FF40030FFF786FD00214FF49D
:102EE8000030FFF781FD36E07B68264A93420AD11D
:102EF80001214FF48020FFF777FD00214FF4802057
:102F0800FFF772FD27E07B681F4A934208D1012131
:102F18004020FFF749FD00214020FFF745FD1AE05A
:102F28007B681A4A934208D101218020FFF73CFDB3
:102F380000218020FFF738FD0DE07B68144A93429A
:102F480009D101214FF48070FFF72EFD00214FF4C5
:102F58008070FFF729FD00BF0837BD4680BD00BF60
:102F6800000001400004004000080040000C004040
:102F780000100040001400400004014000400140DF
:102F8800004401400048014000180040001C004077
:102F98000020004080B485B000AF7860396000231D
:102FA800FB817B681B88FB817B68294A934213D08D
:102FB8007B68284A93420FD07B68B3F1804F0BD0CF
:102FC8007B68254A934207D07B68244A934203D002
:102FD8007B68234A934208D1FB8923F07003FB8165
:102FE8003B685A88FB891343FB817B681D4A9342DF
:102FF8000CD07B681C4A934208D0FB8923F44073A9
:10300800FB813B681A89FB891343FB817B68FA893A
:103018001A803B685A687B68DA623B681A887B6862
:103028001A857B680A4A934203D07B68094A93420F
:1030380004D13B689B7A9AB27B681A867B68012226
:103048009A8200BF1437BD465DF8047B704700BF05
:103058000000014000040140000400400008004056
:10306800000C0040001000400014004080B483B001
:1030780000AF78607B684FF0FF325A607B680022AF
:103088001A807B6800221A817B6800225A807B683C
:1030980000229A7200BF0C37BD465DF8047B70476A
:1030A80080B483B000AF78600B467B8013463B80CA
:1030B8007B687A881A857B683A889A8200BF0C37C1
:1030C800BD465DF8047B704780B485B000AF78607A
:1030D8000B467B800023FB817B681B88FB81FB8977
:1030E80023F07003FB81FA897B881343FB817B689B
:1030F800FA891A8000BF1437BD465DF8047B704713
:1031080080B483B000AF786039607B683A685A62EF
:1031180000BF0C37BD465DF8047B704780B483B0B0
:1031280000AF786039607B683A68DA6200BF0C37B4
:10313800BD465DF8047B704780B483B000AF78600B
:103148007B685B6A18460C37BD465DF8047B7047A0
:1031580080B483B000AF78607B681B8D9BB2184643
:103168000C37BD465DF8047B704780B483B000AF70
:1031780078600B46FB70FB78002B08D07B681B88B7
:103188009BB243F002039AB27B681A8007E07B681F
:103198001B889BB223F002039AB27B681A8000BF97
:1031A8000C37BD465DF8047B704780B483B000AF30
:1031B80078600B467B807B88002B08D07B681B8857
:1031C8009BB243F004039AB27B681A8007E07B68DD
:1031D8001B889BB223F004039AB27B681A8000BF55
:1031E8000C37BD465DF8047B704780B483B000AFF0
:1031F80078600B46FB70FB78002B08D07B681B8837
:103208009BB243F080039AB27B681A8007E07B6820
:103218001B889BB223F080039AB27B681A8000BF98
:103228000C37BD465DF8047B704780B483B000AFAF
:1032380078600B467B807B681B889BB223F0080371
:103248009AB27B681A807B681B889AB27B88134382
:103258009AB27B681A8000BF0C37BD465DF8047BC4
:10326800704780B483B000AF78600B467B807B6882
:103278001B889BB223F440739AB27B681A807B68E0
:103288001B889AB27B8813439AB27B681A8000BF66
:103298000C37BD465DF8047B704780B483B000AF3F
:1032A80078600B46FB70FB78002B08D07B681B8886
:1032B8009BB243F001039AB27B681A8007E07B68EF
:1032C8001B889BB223F001039AB27B681A8000BF67
:1032D8000C37BD465DF8047B704780B485B000AFFD
:1032E8007860396000237B810023FB810023BB8148
:1032F8007B681B8C9BB223F001039AB27B681A840B
:103308007B681B8CFB817B689B88BB817B681B8BE4
:103318007B817B8923F070037B817B8923F0030306
:103328007B813B681A887B8913437B81FB8923F067
:103338000203FB813B689A89FB891343FB813B6845
:103348005A88FB891343FB817B681F4A934203D049
:103358007B681E4A934223D1FB8923F00803FB8133
:103368003B68DA89FB891343FB81FB8923F004035B
:10337800FB813B689A88FB891343FB81BB8923F453
:103388008073BB81BB8923F40073BB813B681A8AB5
:10339800BB891343BB813B685A8ABB891343BB81F2
:1033A8007B68BA899A807B687A891A833B689A68AD
:1033B8007B685A637B68FA891A8400BF1437BD4654
:1033C8005DF8047B704700BF000001400004014025
:1033D80080B485B000AF7860396000237B8100231A
:1033E800FB810023BB817B681B8C9BB223F01003FD
:1033F8009AB27B681A847B681B8CFB817B689B88EC
:10340800BB817B681B8B7B817B8923F4E0437B81B9
:103418007B8923F440737B813B681B881B029AB22B
:103428007B8913437B81FB8923F02003FB813B6865
:103438009B891B019AB2FB891343FB813B685B881C
:103448001B019AB2FB891343FB817B68224A934292
:1034580003D07B68214A93422BD1FB8923F0800358
:10346800FB813B68DB891B019AB2FB891343FB8113
:10347800FB8923F04003FB813B689B881B019AB2C0
:10348800FB891343FB81BB8923F48063BB81BB8920
:1034980023F40063BB813B681B8A9B009AB2BB89FB
:1034A8001343BB813B685B8A9B009AB2BB89134379
:1034B800BB817B68BA899A807B687A891A833B6862
:1034C8009A687B689A637B68FA891A8400BF143704
:1034D800BD465DF8047B70470000014000040140D0
:1034E80080B485B000AF7860396000237B81002309
:1034F800FB810023BB817B681B8C9BB223F4807308
:103508009AB27B681A847B681B8CFB817B689B88DA
:10351800BB817B689B8B7B817B8923F070037B81DC
:103528007B8923F003037B813B681A887B891343DB
:103538007B81FB8923F40073FB813B689B891B0219
:103548009AB2FB891343FB813B685B881B029AB2E2
:10355800FB891343FB817B68224A934203D07B6833
:10356800214A93422BD1FB8923F40063FB813B68FA
:10357800DB891B029AB2FB891343FB81FB8923F485
:103588008063FB813B689B881B029AB2FB891343CB
:10359800FB81BB8923F48053BB81BB8923F400538F
:1035A800BB813B681B8A1B019AB2BB891343BB8151
:1035B8003B685B8A1B019AB2BB891343BB817B685A
:1035C800BA899A807B687A899A833B689A687B680B
:1035D800DA637B68FA891A8400BF1437BD465DF840
:1035E800047B7047000001400004014080B485B0AE
:1035F80000AF786039600023BB8100237B81002302
:10360800FB817B681B8C9BB223F480539AB27B6846
:103618001A847B681B8C7B817B689B88FB817B6819
:103628009B8BBB81BB8923F4E043BB81BB8923F41B
:103638004073BB813B681B881B029AB2BB8913434A
:10364800BB817B8923F400537B813B689B891B03E7
:103658009AB27B8913437B813B685B881B039AB2D0
:103668007B8913437B817B68124A934203D07B6832
:10367800114A93420AD1FB8923F48043FB813B68BA
:103688001B8A9B019AB2FB891343FB817B68FA89E9
:103698009A807B68BA899A833B689A687B681A64BF
:1036A8007B687A891A8400BF1437BD465DF8047BAD
:1036B800704700BF000001400004014080B483B09F
:1036C80000AF78607B6800221A807B6800225A80ED
:1036D8007B6800229A807B6800229A607B680022BF
:1036E8009A817B680022DA817B6800221A827B68D3
:1036F80000225A8200BF0C37BD465DF8047B704734
:1037080080B485B000AF78600B467B8013463B8061
:103718000023FB6000237B817B68FB60FB68183318
:10372800FB607B88012202FA03F37B817B681B8C98
:103738009AB27B89DB439BB213409AB27B681A84A6
:103748007B88002B02D07B88082B14D17B885B08F0
:103758009BB21A46FB681344FB60FB681968FA6859
:103768004FF68F730B401360FB6819683A88FB6843
:103778000A431A6019E07B88043B9BB25B089BB242
:103788001A46FB681344FB60FB681968FA6848F638
:10379800FF730B401360FB681A683B881B029BB2DF
:1037A8001946FB680A431A6000BF00BF1437BD46BC
:1037B8005DF8047B704780B483B000AF78603960EF
:1037C8007B683A685A6300BF0C37BD465DF8047BD6
:1037D800704780B483B000AF786039607B683A681E
:1037E8009A6300BF0C37BD465DF8047B704780B410
:1037F80083B000AF786039607B683A68DA6300BFED
:103808000C37BD465DF8047B704780B483B000AFC9
:10381800786039607B683A681A6400BF0C37BD4627
:103828005DF8047B704780B485B000AF78600B46C4
:103838007B800023FB817B681B8BFB81FB8923F04A
:103848007003FB81FA897B881343FB817B68FA89C3
:103858001A8300BF1437BD465DF8047B704780B4F7
:1038680085B000AF78600B467B800023FB817B68C6
:103878001B8BFB81FB8923F4E043FB817B881B02C4
:103888009AB2FB891343FB817B68FA891A8300BFCC
:103898001437BD465DF8047B704780B485B000AF2F
:1038A80078600B467B800023FB817B689B8BFB81C8
:1038B800FB8923F07003FB81FA897B881343FB8122
:1038C8007B68FA899A8300BF1437BD465DF8047B8C
:1038D800704780B485B000AF78600B467B800023CA
:1038E800FB817B689B8BFB81FB8923F4E043FB8195
:1038F8007B881B029AB2FB891343FB817B68FA8998
:103908009A8300BF1437BD465DF8047B704780B4C6
:1039180085B000AF78600B467B800023FB817B6815
:103928001B8BFB81FB8923F00803FB81FA897B88C9
:103938001343FB817B68FA891A8300BF1437BD469D
:103948005DF8047B704780B485B000AF78600B46A3
:103958007B800023FB817B681B8BFB81FB8923F425
:103968000063FB817B881B029AB2FB891343FB81AE
:103978007B68FA891A8300BF1437BD465DF8047B5B
:10398800704780B485B000AF78600B467B80002319
:10399800FB817B689B8BFB81FB8923F00803FB8100
:1039A800FA897B881343FB817B68FA899A8300BF75
:1039B8001437BD465DF8047B704780B485B000AF0E
:1039C80078600B467B800023FB817B689B8BFB81A7
:1039D800FB8923F40063FB817B881B029AB2FB8975
:1039E8001343FB817B68FA899A8300BF1437BD466D
:1039F8005DF8047B704780B485B000AF78600B46F3
:103A08007B800023FB817B681B8BFB81FB8923F078
:103A18000403FB81FA897B881343FB817B68FA895D
:103A28001A8300BF1437BD465DF8047B704780B425
:103A380085B000AF78600B467B800023FB817B68F4
:103A48001B8BFB81FB8923F48063FB817B881B0232
:103A58009AB2FB891343FB817B68FA891A8300BFFA
:103A68001437BD465DF8047B704780B485B000AF5D
:103A780078600B467B800023FB817B689B8BFB81F6
:103A8800FB8923F00403FB81FA897B881343FB81BC
:103A98007B68FA899A8300BF1437BD465DF8047BBA
:103AA800704780B485B000AF78600B467B800023F8
:103AB800FB817B689B8BFB81FB8923F48063FB8103
:103AC8007B881B029AB2FB891343FB817B68FA89C6
:103AD8009A8300BF1437BD465DF8047B704780B4F5
:103AE80085B000AF78600B467B800023FB817B6844
:103AF8001B8BFB81FB8923F08003FB81FA897B8880
:103B08001343FB817B68FA891A8300BF1437BD46CB
:103B18005DF8047B704780B485B000AF78600B46D1
:103B28007B800023FB817B681B8BFB81FB89C3F3B4
:103B38000E03FB817B881B029AB2FB891343FB812E
:103B48007B68FA891A8300BF1437BD465DF8047B89
:103B5800704780B485B000AF78600B467B80002347
:103B6800FB817B689B8BFB81FB8923F08003FB81B6
:103B7800FA897B881343FB817B68FA899A8300BFA3
:103B88001437BD465DF8047B704780B485B000AF3C
:103B980078600B467B800023FB817B689B8BFB81D5
:103BA800FB89C3F30E03FB817B881B029AB2FB8956
:103BB8001343FB817B68FA899A8300BF1437BD469B
:103BC8005DF8047B704780B485B000AF78600B4621
:103BD8007B800023FB817B681B8CFB81FB8923F0A6
:103BE8000203FB81FA897B881343FB817B68FA898E
:103BF8001A8400BF1437BD465DF8047B704780B453
:103C080085B000AF78600B467B800023FB817B6822
:103C18001B8CFB81FB8923F00803FB81FA897B88D5
:103C28001343FB817B68FA891A8400BF1437BD46A9
:103C38005DF8047B704780B485B000AF78600B46B0
:103C48007B800023FB817B681B8CFB81FB8923F035
:103C58002003FB817B881B019AB2FB891343FB81FC
:103C68007B68FA891A8400BF1437BD465DF8047B67
:103C7800704780B485B000AF78600B467B80002326
:103C8800FB817B681B8CFB81FB8923F08003FB8114
:103C98007B881B019AB2FB891343FB817B68FA89F5
:103CA8001A8400BF1437BD465DF8047B704780B4A2
:103CB80085B000AF78600B467B800023FB817B6872
:103CC8001B8CFB81FB8923F40073FB817B881B021F
:103CD8009AB2FB891343FB817B68FA891A8400BF77
:103CE8001437BD465DF8047B704780B485B000AFDB
:103CF80078600B467B800023FB817B681B8CFB81F3
:103D0800FB8923F40063FB817B881B029AB2FB8941
:103D18001343FB817B68FA891A8400BF1437BD46B8
:103D28005DF8047B704780B485B000AF78600B46BF
:103D38007B800023FB817B681B8CFB81FB8923F440
:103D48000053FB817B881B039AB2FB891343FB81D9
:103D58007B68FA891A8400BF1437BD465DF8047B76
:103D6800704780B485B000AF78600B467B801346FF
:103D78003B800023FB817B88012202FA03F3FB814D
:103D88007B681B8C9AB2FB89DB439BB213409AB2C7
:103D98007B681A847B681B8C9AB239887B8801FA05
:103DA80003F39BB213439AB27B681A8400BF14379B
:103DB800BD465DF8047B704780B485B000AF78607D
:103DC8000B467B8013463B800023FB817B880422C3
:103DD80002FA03F3FB817B681B8C9AB2FB89DB43F5
:103DE8009BB213409AB27B681A847B681B8C9AB288
:103DF80039887B8801FA03F39BB213439AB27B6834
:103E08001A8400BF1437BD465DF8047B704780B53F
:103E180082B000AF786039603B681B88002B0FD1F7
:103E28003B6859883B689A883B681B89786800F02A
:103E3800B7FC3B68DB881946786800F0E1F836E0A3
:103E48003B681B88042B0FD13B6859883B689A88CC
:103E58003B681B89786800F0E6FC3B68DB881946FC
:103E6800786800F0E9F822E03B681B88082B0FD13E
:103E78003B6859883B689A883B681B89786800F0DA
:103E88001FFD3B68DB881946786800F0F3F80EE000
:103E98003B6859883B689A883B681B89786800F0BA
:103EA80057FD3B68DB881946786800F0FFF800BFCB
:103EB8000837BD4680BD80B483B000AF78607B68AA
:103EC80000221A807B6800225A807B6801229A802F
:103ED8007B680022DA807B6800221A8100BF0C37D9
:103EE800BD465DF8047B704780B584B000AF78604C
:103EF80039600023FB810123BB813B685B88002B71
:103F080002D10223FB8101E00023FB813B689B88EF
:103F1800012B02D10223BB8101E00123BB813B6855
:103F28001B88002B1CD13B6859883B689A883B68E2
:103F38001B89786800F034FC3B68DB881946786890
:103F480000F05EF83B681B89BA89F989786800F047
:103F58006AFC3B68DB881946786800F06DF81BE05E
:103F68003B6859883B689A883B681B89786800F0E9
:103F78005AFC3B68DB881946786800F05DF83B68B6
:103F88001B89BA89F989786800F00AFC3B68DB88E4
:103F98001946786800F034F800BF1037BD4680BD78
:103FA80080B483B000AF78607B685B6B18460C37D1
:103FB800BD465DF8047B704780B483B000AF78607D
:103FC8007B689B6B18460C37BD465DF8047B7047D1
:103FD80080B483B000AF78607B68DB6B18460C3721
:103FE800BD465DF8047B704780B483B000AF78604D
:103FF8007B681B6C18460C37BD465DF8047B704720
:1040080080B483B000AF78600B467B807B681B8BE5
:104018009BB223F00C039AB27B681A837B681B8BD4
:104028009AB27B8813439AB27B681A8300BF0C3715
:10403800BD465DF8047B704780B483B000AF7860FC
:104048000B467B807B681B8B9BB223F440639AB240
:104058007B681A837B681B8B9AB27B881B029BB296
:1040680013439AB27B681A8300BF0C37BD465DF8CC
:10407800047B704780B483B000AF78600B467B80C8
:104088007B689B8B9BB223F00C039AB27B689A8364
:104098007B689B8B9AB27B8813439AB27B689A831E
:1040A80000BF0C37BD465DF8047B704780B483B011
:1040B80000AF78600B467B807B689B8B9BB223F4B8
:1040C80040639AB27B689A837B689B8B9AB27B88A1
:1040D8001B029BB213439AB27B689A8300BF0C37CA
:1040E800BD465DF8047B704780B483B000AF78604C
:1040F80039603B681A883B685B8813439AB23B680F
:104108009B8813439AB23B68DB8813439AB23B6897
:104118001B8913439AB23B685B8913439AB23B6885
:104128009B8913439AB27B68A3F8442000BF0C37DD
:10413800BD465DF8047B704780B483B000AF7860FB
:104148007B6800221A807B6800225A807B680022E4
:104158009A807B680022DA807B6800221A817B685B
:1041680000225A817B6800229A8100BF0C37BD4625
:104178005DF8047B704780B483B000AF78600B466D
:10418800FB70FB78002B0CD07B68B3F844309BB2F3
:104198006FEA43436FEA53439AB27B68A3F844201B
:1041A80009E07B68B3F844309BB2C3F30E039AB2BC
:1041B8007B68A3F8442000BF0C37BD465DF8047B3C
:1041C800704780B483B000AF78600B46FB70FB7813
:1041D800002B08D07B689B889BB243F004039AB2FB
:1041E8007B689A8007E07B689B889BB223F0040376
:1041F8009AB27B689A8000BF0C37BD465DF8047B95
:10420800704780B483B000AF78600B46FB70FB78D2
:10421800002B08D07B689B889BB243F001039AB2BD
:104228007B689A8007E07B689B889BB223F0010338
:104238009AB27B689A8000BF0C37BD465DF8047B54
:10424800704780B483B000AF78600B467B8013461C
:104258007B707B78002B08D07B689B899AB27B881F
:1042680013439AB27B689A8109E07B689B899AB26A
:104278007B88DB439BB213409AB27B689A8100BF6C
:104288000C37BD465DF8047B704780B483B000AF3F
:1042980078600B467B807B687A889A8200BF0C37EF
:1042A800BD465DF8047B704780B485B000AF786088
:1042B8000B467B800023FB737B681B8A9AB27B8842
:1042C80013409BB2002B02D00123FB7301E00023B3
:1042D800FB73FB7B18461437BD465DF8047B7047BB
:1042E80080B483B000AF78600B467B807B88DB436B
:1042F8009AB27B681A8200BF0C37BD465DF8047B12
:10430800704780B485B000AF78600B467B8000238F
:10431800FB730023BB8100237B817B681B8A9AB2D5
:104328007B881340BB817B689B899AB27B8813404A
:104338007B81BB89002B05D07B89002B02D0012310
:10434800FB7301E00023FB73FB7B18461437BD4663
:104358005DF8047B704780B483B000AF78600B468B
:104368007B807B88DB439AB27B681A8200BF0C375C
:10437800BD465DF8047B704780B483B000AF7860B9
:104388000B467B8013463B807A883B8813439AB25E
:104398007B68A3F8482000BF0C37BD465DF8047B56
:1043A800704780B483B000AF78600B467B801346BB
:1043B8007B707B78002B08D07B689B899AB27B88BE
:1043C80013439AB27B689A8109E07B689B899AB209
:1043D8007B88DB439BB213409AB27B689A8100BF0B
:1043E8000C37BD465DF8047B704780B483B000AFDE
:1043F80078600B46FB70FB78002B08D07B689B88A5
:104408009BB243F008039AB27B689A8007E07B6806
:104418009B889BB223F008039AB27B689A8000BFFE
:104428000C37BD465DF8047B704780B483B000AF9D
:1044380078607B681B899BB223F007039AB27B687C
:104448001A8100BF0C37BD465DF8047B704780B504
:1044580082B000AF78600B467B807B88194678680D
:1044680000F088F87B681B899BB243F007039AB277
:104478007B681A8100BF0837BD4680BD80B584B00F
:1044880000AFF860084611461A4603467B810B4682
:104498003B811346FB807B89602B06D1FB883989D9
:1044A8000122F86800F0BFF905E0FB88398901228C
:1044B800F86800F075F97B891946F86800F05AF831
:1044C800FB681B899BB243F007039AB2FB681A8109
:1044D80000BF1037BD4680BD80B586B000AFF8601C
:1044E800084611461A4603467B810B463B81134614
:1044F800FB800023FB82FB883A897989F86800F001
:10450800A9F8FB681B89FB82FB8A23F00703FB825F
:10451800FB8A43F00703FB82FB8A23F07003FB82CC
:10452800FB8A43F07003FB82FB68FA8A1A8100BF9A
:104538001837BD4680BD80B584B000AFF860084626
:1045480011461A4603467B810B463B811346FB8086
:10455800FB883A897989F86800F07CF8FB681B8940
:104568009BB243F480439AB2FB681A8100BF1037AC
:10457800BD4680BD80B485B000AF78600B467B80B7
:104588000023FB817B681B89FB81FB8923F0700377
:10459800FB81FA897B881343FB817B68FA891A813E
:1045A80000BF1437BD465DF8047B704780B483B004
:1045B80000AF78600B467B807B689B889BB223F0BA
:1045C80070039AB27B689A807B689B889AB27B88D2
:1045D80013439AB27B689A8000BF0C37BD465DF8DA
:1045E800047B704780B483B000AF78600B467B8053
:1045F8007B681B899BB223F007039AB27B681A81F8
:104608007B681B899AB27B8813439AB27B681A81AC
:1046180000BF0C37BD465DF8047B704780B483B09B
:1046280000AF78600B467B807B681B899BB223F0C8
:1046380080039AB27B681A817B681B899AB27B884F
:1046480013439AB27B681A8100BF0C37BD465DF8E8
:10465800047B704780B487B000AFF8600846114605
:104668001A4603467B810B463B811346FB80002399
:10467800FB82FB681B89FB82FB8ADBB2FB82FB881F
:104688001B029AB23B8913439AB27B8913439AB2AD
:10469800FB8A1343FB82FB68FA8A1A8100BF1C3726
:1046A800BD465DF8047B704780B487B000AFF86002
:1046B800084611461A4603467B810B463B81134642
:1046C800FB800023FB820023BB8200237B82FB68E4
:1046D8001B89FB82FB681B8BBB82FB681B8C7B8264
:1046E800FB8A23F00703FB82FA8A7B891343FB8248
:1046F800BB8A23F4407323F00303BB82BB8A43F4D1
:10470800807343F00103BB827B8A23F022037B8200
:10471800FB881B019AB23B8913439AB27B8A1343E5
:104728007B82FB68FA8A1A81FB68BA8A1A83FB685B
:104738007A8A1A8400BF1C37BD465DF8047B70472F
:1047480080B483B000AF78600B46FB70FB78002B19
:1047580008D07B689B889BB243F080039AB27B6841
:104768009A8007E07B689B889BB223F080039AB20B
:104778007B689A8000BF0C37BD465DF8047B7047A4
:1047880080B483B000AF78600B467B807B687A8802
:10479800A3F8502000BF0C37BD465DF8047B704776
:1047A80080B487B000AFF860084611461A46034641
:1047B8007B810B463B811346FB800023FB82002351
:1047C800BB82FB681B8C9BB223F001039AB2FB6887
:1047D8001A84FB681B8BFB82FB681B8CBB82FB8AE1
:1047E80023F0F303FB82FB881B019AB23B89134336
:1047F8009AB2FB8A1343FB82BB8A23F00A03BB826B
:104808007A89BB8A13439BB243F00103BB82FB68DE
:10481800FA8A1A83FB68BA8A1A8400BF1C37BD4615
:104828005DF8047B704780B487B000AFF860084635
:1048380011461A4603467B810B463B811346FB8093
:104848000023FB820023BB8200237B82FB681B8C36
:104858009BB223F010039AB2FB681A84FB681B8B87
:10486800FB82FB681B8CBB827B891B017B82FB8ADA
:1048780023F440731B051B0DFB82FB881B039AB2B4
:10488800FB8A1343FB823B891B029AB2FB8A1343C0
:10489800FB82BB8A23F0A003BB827A8ABB8A1343BC
:1048A8009BB243F01003BB82FB68FA8A1A83FB6849
:1048B800BA8A1A8400BF1C37BD465DF8047B70476E
:1048C80080B487B000AFF860084611461A46034620
:1048D8007B810B463B811346FB800023FB82002330
:1048E800BB8200237B82FB681B8C9BB223F4807302
:1048F8009AB2FB681A84FB689B8BFB82FB681B8C53
:10490800BB827B891B027B82FB8A23F0F303FB8239
:10491800FB881B019AB23B8913439AB2FB8A134363
:10492800FB82BB8A23F42063BB827A8ABB8A134347
:104938009BB243F48073BB82FB68FA8A9A83FB6854
:10494800BA8A1A8400BF1C37BD465DF8047B7047DD
:1049580080B487B000AFF860084611461A4603468F
:104968007B810B463B811346FB800023FB8200239F
:10497800BB8200237B82FB681B8C9BB223F4805391
:104988009AB2FB681A84FB689B8BFB82FB681B8CC2
:10499800BB827B891B037B82FB8A23F440731B0544
:1049A8001B0DFB823B891B029AB2FB8A1343FB82D5
:1049B800FB881B039AB2FB8A1343FB82BB8A23F44E
:1049C80000535B045B0CBB827A8ABB8A13439BB29D
:1049D80043F48053BB82FB68FA8A9A83FB68BA8ADD
:1049E8001A8400BF1C37BD465DF8047B704700BFC2
:1049F80080B400AF094B00221A60084B00225A60AD
:104A0800064B00229A60054B0022DA60034B044AE9
:104A18005A6100BFBD465DF8047B7047003C014009
:104A2800FFFF7F0080B485B000AF78600023FB6093
:104A3800344BFB607B689B79002B4FD0314B1A6855
:104A48007B681B68DB432F4913400B602D4B5A686A
:104A58007B681B68DB432B4913404B607B681B79E1
:104A68001A46FB681344FB60FB6819687B681A6880
:104A7800FB680A431A60234B9A687B681B68DB4310
:104A8800204913408B601F4BDA687B681B68DB4347
:104A98001C491340CB607B685B79102B0ED1194BF6
:104AA8009A687B681B68174913438B60154BDA6853
:104AB8007B681B6813491343CB601DE0114BFB60F7
:104AC8007B685B791A46FB681344FB60FB681968CE
:104AD8007B681A68FB680A431A600DE07B681B79DB
:104AE8001A46FB681344FB60FB6819687B681B68FF
:104AF800DA43FB680A401A6000BF1437BD465DF808
:104B0800047B7047003C014080B483B000AF7860FC
:104B18007B6800221A607B6800221A717B680C226D
:104B28005A717B6800229A7100BF0C37BD465DF848
:104B3800047B704780B483B000AF7860054B1A6976
:104B480004497B6813430B6100BF0C37BD465DF811
:104B5800047B7047003C014080B485B000AF7860AA
:104B68000023FB73084B5A697B681340002B02D063
:104B78000123FB7301E00023FB73FB7B184614370A
:104B8800BD465DF8047B7047003C014080B483B0AB
:104B980000AF7860044A7B68536100BF0C37BD469C
:104BA8005DF8047B704700BF003C014080B485B0CD
:104BB80000AF78600023FB730023BB600C4B1B68BD
:104BC8007A681340BB600A4B5A697B681340002B14
:104BD80005D0BB68002B02D00123FB7301E0002342
:104BE800FB73FB7B18461437BD465DF8047B7047A2
:104BF800003C014080B483B000AF7860044A7B6811
:104C0800536100BF0C37BD465DF8047B704700BF99
:104C1800003C014080B483B000AF03463960FB71AB
:104C280097F90730002B0BDA3B68DAB20C49FB79AD
:104C380003F00F03043B1201D2B20B441A7609E0C9
:104C48003B68DAB2074997F907301201D2B20B4430
:104C580083F8002300BF0C37BD465DF8047B70471E
:104C680000ED00E000E100E080B582B000AF7860C0
:104C78007B68B3F1807F01D3012311E07B6823F0C7
:104C88007F43094A013B53600F214FF0FF30FFF784
:104C9800C1FF054B00229A60034B07221A600023CC
:104CA80018460837BD4680BD10E000E080B500AF6B
:104CB8000B4B1B680B4AA2FB03235A0D13461B011F
:104CC8009B1A9B021846FFF7CFFF0346002B00D024
:104CD800FEE76FF00400FDF709F800BF80BD00BFD4
:104CE8001C00002083DE1B4380B483B000AF224B3E
:104CF800B3F846329BB201339AB21F4BA3F846224F
:104D08001D4BB3F84632FB801B4BB3F84432BB80D3
:104D1800194B93F84832DBB2002B07D0FA88BB88CE
:104D2800D31A9BB247F6FE72934211D8134B1B68F5
:104D3800124A23F0020313600F4BB3F846329AB2BB
:104D48000D4BA3F844220C4B002283F848220CE0B8
:104D58000A4B1B68094A43F001031360074B1B68A1
:104D6800064A43F00203136000BF00BF0C37BD467C
:104D78005DF8047B704700BFB004002010E000E03D
:104D880080B483B000AF0346FB71FB7903F01F03C7
:104D9800012202FA03F1064A97F907305B0942F843
:104DA800231000BF0C37BD465DF8047B704700BF79
:104DB80000E100E080B483B000AF0346FB71FB79EB
:104DC80003F01F03012202FA03F1064A97F907309C
:104DD8005B09203342F8231000BF0C37BD465DF84D
:104DE800047B704700E100E080B586B000AF012188
:104DF8000420FDF7D9FC01210120FDF7D5FC012194
:104E08004FF48040FDF750FD4FF400533B61012300
:104E18003B750023BB750023FB7500237B7507F1E9
:104E2800100319462C48FDF70DF801233B610023B8
:104E38003B750023BB750223FB7502237B7507F1C5
:104E4800100319462548FCF7FDFF01210820FDF74E
:104E5800ABFC4FF400433B6101233B750023BB755A
:104E68000023FB7500237B7507F1100319461C48C6
:104E7800FCF7E8FF4FF480433B6101233B750023B7
:104E8800BB750023FB7500237B7507F110031946DA
:104E98001348FCF7D7FF00210020FDF71FFF01236F
:104EA800BB6000233B730C237B730123BB7307F1A7
:104EB80008031846FFF7B6FD06233B7101237B71F3
:104EC8000123BB710123FB713B1D1846FCF774FEDF
:104ED80000BF1837BD4680BD0008024000000240F0
:104EE800000C024080B500AF1720FFF763FF0B4BA3
:104EF8005B6903F48073002B0BD0084B4FF480726E
:104F08005A61074B012283F84C22054B012283F892
:104F18004C221720FFF734FF00BF80BD003C014042
:104F2800B004002080B586B000AF01210820FDF74D
:104F38003BFC01214FF48040FDF7B6FC4FF4807331
:104F4800BB6000233B730023BB730123FB73022365
:104F58007B7307F1080319461248FCF773FF082111
:104F68000320FDF7BBFE4FF480733B6100233B75C4
:104F78000C237B750123BB7507F110031846FFF757
:104F880051FD17233B7100237B710023BB71012363
:104F9800FB713B1D1846FCF70FFE00BF1837BD46D6
:104FA80080BD00BF000C024080B400AF064B002259
:104FB8001A6000BF044B1B68002BFBD000BF00BF6A
:104FC800BD465DF8047B70478804002080B500AFBB
:104FD80000F031FEFFF7A6FF35F0E6FC00BF80BD0C
:104FE80080B500AF00BF104B93F84032DBB2012B05
:104FF800F9D00D4B012283F840220B4B002283F895
:105008003E22094B002283F83F22012271210748E2
:1050180000F0B2FC00BF044B93F84032DBB2012B26
:10502800F9D000BF00BF80BDB004002000380040A8
:1050380080B483B000AF786000BF0C37BD465DF820
:10504800047B704780B483B000AF7860396000BFDC
:105058000C37BD465DF8047B704700BF80B500AFD4
:10506800164BD3F88830154A43F47003C2F88830D9
:10507800134B1B68124A43F001031360104B0022C4
:105088009A600F4B1B680E4A23F0847323F4803315
:1050980013600B4B0B4A5A60094B1B68084A23F4F0
:1050A80080231360064B0022DA6000F08FF8034B70
:1050B8004FF000629A6000BF80BD00BF00ED00E0C5
:1050C800003802401030002480B487B000AF0023BD
:1050D8003B6100237B610223FB600023BB6002234A
:1050E8007B60354B9B6803F00C033B613B69082BE5
:1050F80011D03B69082B44D83B69002B03D03B698E
:10510800042B04D03DE02D4B2D4A1A603DE02B4B7B
:105118002C4A1A6039E0284B5B689B0D03F00103A9
:10512800BB60254B5B6803F03F037B60BB68002BCB
:105138000CD0244A7B68B2FBF3F31F4A52689209E9
:10514800C2F3080202FB03F37B610BE01C4A7B6895
:10515800B2FBF3F3184A52689209C2F3080202FB41
:1051680003F37B61144B5B681B0C03F003030133EF
:105178005B00FB607A69FB68B2FBF3F30F4A1360CC
:1051880003E00E4B0E4A1A6000BF0B4B9B681B09CD
:1051980003F00F030C4AD35CDBB23B61074B1A6880
:1051A8003B6922FA03F3054A136000BF1C37BD466A
:1051B8005DF8047B704700BF003802401C000020E7
:1051C8000024F400001BB7002000002080B483B046
:1051D80000AF00237B6000233B60364B1B68354AD9
:1051E80043F480331360334B1B6803F400333B6094
:1051F8007B6801337B603B68002B03D17B68B3F588
:10520800A06FF0D12B4B1B6803F40033002B02D0A6
:1052180001233B6001E000233B603B68012B42D146
:10522800244B1B6C234A43F080531364224B1B68A6
:10523800214A43F4804313601E4B1E4A9B689360C7
:105248001C4B9B681B4A43F400439360194B9B68B3
:10525800184A43F4A0539360164B184A5A60154BEA
:105268001B68144A43F08073136000BF114B1B681E
:1052780003F00073002BF9D0114B40F205621A605D
:105288000C4B9B680B4A23F003039360094B9B6804
:10529800084A43F00203936000BF064B9B6803F083
:1052A8000C03082BF9D100BF0C37BD465DF8047B11
:1052B800704700BF003802400070004008544007A3
:1052C800003C024080B582B000AF78607B68174A26
:1052D80093420AD101214FF48050FDF785FB00214C
:1052E8004FF48050FDF780FB1CE07B68104A934226
:1052F8000AD101214FF48040FDF756FB00214FF4FD
:105308008040FDF751FB0DE07B680A4A934209D1C2
:1053180001214FF40040FDF747FB00214FF4004006
:10532800FDF742FB00BF0837BD4680BD0030014095
:1053380000380040003C004080B485B000AF786081
:1053480039600023FB817B681B88FB81FB8903F4A0
:105358004153FB813B681A883B685B8813439AB2C8
:105368003B689B8813439AB23B68DB8813439AB225
:105378003B681B8913439AB23B685B8913439AB213
:105388003B689B8913439AB23B68DB8913439AB203
:10539800FB891343FB817B68FA891A807B689B8BA6
:1053A8009BB223F400639AB27B689A833B681A8A9B
:1053B8007B681A8200BF1437BD465DF8047B7047CE
:1053C80080B48BB000AF7860396000237B83022300
:1053D800FB840023BB8401237B840023FB6100231F
:1053E8007B6100233B610023FB600023BB607B687B
:1053F8009B8B9BB223F47B6323F00F039AB27B68E9
:105408009A837B6802221A847B689B8B7B833B6828
:105418009B68022B04D10023BB840223FB846DE02C
:105428003B689B88002B02D101237B8401E0022387
:105438007B844B4B9B6803F40003002B05D0484B3F
:105448009B68474A23F400039360454BD3F88430A4
:105458009B09C3F30803FB60414BD3F884301B0F4F
:1054680003F00703BB603E4B5B6803F03F033B61FF
:105478003C4A3B69B2FBF3F3FA6802FB03F2BB68F0
:10548800B2FBF3F37B613B68DB88B3F5007F0FD198
:105498007B691A0A13469B0013445B001A463B6853
:1054A8009B68B2FBF3F39BB205339BB2FB6112E03E
:1054B8007B8C5B011A467B69B3FBF2F213469B00B7
:1054C80013445B001A463B689B68B2FBF3F39BB23C
:1054D80005339BB2FB61FB69234AA2FB0323DB086C
:1054E800FB61FB699BB203F00103BB84BB8CFA69C7
:1054F800D31A5B08FB84BB8C1B02BB84FB8C012B7F
:1055080002D9FB8CFF2B03D90223FB840023BB8425
:105518003B68DA88BB8C13439AB2FB8C13439AB26C
:105528007B681A843B681A883B6859883B68988866
:105538003B689B8903439BB20B439BB213439AB2CC
:105548007B8B13439BB243F400637B837B687A8B2A
:105558009A8300BF2C37BD465DF8047B704700BFB7
:1055680000380240001BB700CDCCCCCC80B483B04F
:1055780000AF78607B6800221A807B6800225A801E
:105588007B6800229A807B680022DA807B68002290
:105598001A817B6800225A817B6800229A817B6885
:1055A8000022DA817B6807221A8200BF0C37BD46C9
:1055B8005DF8047B704780B483B000AF78607B6887
:1055C80000221A807B6800225A807B6800229A8019
:1055D8007B680022DA807B6802229A607B6800225E
:1055E8009A8100BF0C37BD465DF8047B704780B4D4
:1055F80083B000AF78600B46FB70FB78002B08D0B7
:105608007B681B889BB243F040039AB27B681A8080
:1056180007E07B681B889BB223F040039AB27B6843
:105628001A8000BF0C37BD465DF8047B704780B414
:1056380083B000AF78600B46FB70FB78002B08D076
:105648007B689B8B9BB243F480639AB27B689A8396
:1056580007E07B689B8B9BB223F480639AB27B68DC
:105668009A8300BF0C37BD465DF8047B704780B451
:1056780083B000AF78600B467B807B681B889BB249
:1056880023F400639AB27B681A807B681B889AB2FD
:105698007B8813439AB27B681A8000BF0C37BD46DB
:1056A8005DF8047B704780B483B000AF78600B4628
:1056B8007B807B88B3F5804F08D17B681B889BB2C1
:1056C80043F480439AB27B681A8007E07B681B88A2
:1056D8009BB223F480439AB27B681A8000BF0C37D0
:1056E800BD465DF8047B704780B483B000AF786036
:1056F8000B467B807B884FF6FF62934208D07B681D
:105708001B889BB243F480739AB27B681A8007E0C7
:105718007B681B889BB223F480739AB27B681A80DB
:1057280000BF0C37BD465DF8047B704780B483B07A
:1057380000AF78600B46FB70FB78002B08D07B68C5
:105748009B889BB243F004039AB27B689A8007E077
:105758007B689B889BB223F004039AB27B689A808B
:1057680000BF0C37BD465DF8047B704780B483B03A
:1057780000AF78600B46FB70FB78002B08D07B6885
:105788009B889BB243F010039AB27B689A8007E02B
:105798007B689B889BB223F010039AB27B689A803F
:1057A80000BF0C37BD465DF8047B704780B485B0F8
:1057B80000AF786039600023BB810023FB817B68E0
:1057C8009B8B9BB223F47B6323F00F039AB27B6815
:1057D8009A837B6802221A847B689B8BBB813B6817
:1057E8001B88B3F5007F03D03B681B88002B03D1CF
:1057F8004FF48073FB810BE03B681B88B3F5407F57
:1058080004D03B681B88B3F5807F01D10023FB815E
:105818003B685A883B6899883B689B890B439BB2D5
:1058280013439AB2FB8913439AB2BB8913439BB2C1
:1058380043F40063BB817B68BA899A8300BF14373D
:10584800BD465DF8047B704780B483B000AF7860D4
:105858007B689B899BB218460C37BD465DF8047B74
:10586800704780B483B000AF78600B467B807B685C
:105878007A889A8100BF0C37BD465DF8047B704773
:1058880080B483B000AF78600B46FB70FB78002BC8
:1058980008D07B681B889BB243F400539AB27B689C
:1058A8001A8007E07B681B889BB223F400539AB2E6
:1058B8007B681A8000BF0C37BD465DF8047B7047D3
:1058C80080B483B000AF78607B681B889BB243F4D8
:1058D80080539AB27B681A8000BF0C37BD465DF8CA
:1058E800047B704780B485B000AF78600B46FB70CE
:1058F8000023FB81FB78012B03D07B681B8BFB818A
:1059080002E07B689B8AFB81FB8918461437BD46F9
:105918005DF8047B704780B483B000AF78607B6823
:105928001B8A9BB218460C37BD465DF8047B70474E
:1059380080B483B000AF78600B467B8013467B70E1
:105948007B78002B08D07B689B889AB27B881343AE
:105958009AB27B689A8009E07B689B889AB27B88B8
:10596800DB439BB213409AB27B689A8000BF0C3726
:10597800BD465DF8047B704780B485B000AF7860A1
:105988000B46FB701346BB700023FB810023BB81D1
:10599800FB781B09DBB2FB81FB89012202FA03F3C6
:1059A800BB81BB78002B08D07B689B889AB2BB89E7
:1059B80013439AB27B689A8009E07B689B889AB205
:1059C800BB89DB439BB213409AB27B689A8000BFC5
:1059D8001437BD465DF8047B704780B485B000AFCE
:1059E80078600B467B800023FB737B681B899AB227
:1059F8007B8813409BB2002B02D00123FB7301E08C
:105A08000023FB73FB7B18461437BD465DF8047B07
:105A1800704780B483B000AF78600B467B807B888A
:105A2800DB439AB27B681A8100BF0C37BD465DF82C
:105A3800047B704780B485B000AF78600B46FB707C
:105A48000023FB730023BB8100237B8100233B8160
:105A5800FB7803F00F03012202FA03F3BB81FB7802
:105A68001B09DBB27B817B89012202FA03F37B816C
:105A78007B689B889AB27B8913403B817B681B8932
:105A88009AB2BB8913409BB2002B05D03B89002BEF
:105A980002D00123FB7301E00023FB73FB7B184654
:105AA8001437BD465DF8047B704780B485B000AFFD
:105AB80078600B46FB700023FB81FB7803F00F0333
:105AC800012202FA03F3FB81FB89DB439AB27B686C
